:020000040800F2
:10000000481F0020A5020008916A0008654E0008FC
:100010008D6A00085D14000815AD0008000000009E
:1000200000000000000000000000000059720008FD
:10003000E11500080000000015720008B172000808
:10004000BF020008BF020008BF020008BF0200088C
:10005000BF02000855720008BF020008E51500083D
:10006000BF020008BF020008BF020008BF0200086C
:10007000BF020008BF020008BF020008BF0200085C
:10008000BF020008BF020008BF020008BF0200084C
:10009000B1AB0008BF020008BF020008BF020008A1
:1000A000BF020008BF020008BF020008BF0200082C
:1000B000BF020008BF020008BF020008794E000816
:1000C000694E0008BF020008BF020008BF02000816
:1000D000BF020008BF020008BF020008BF020008FC
:1000E000BF020008BF020008BF02000800F002F8CB
:1000F00000F0C8F814A696E8000CB244B344DA4500
:1001000001D100F0BFF8BAE80F000FA696E8300062
:10011000A5EB040504EB0607AAEB0704A7F101070A
:100120004FEA15154FEA3414A4F10104AC4201D38F
:1001300000F0A8F813F0010F18BFFB1A43F00103F9
:1001400000F001F8DBE718476CC800008CC800001D
:100150000A444FF0000C10F8013B13F0070408BFED
:1001600010F8014B1D1108BF10F8015B641E05D08B
:1001700010F8016B641E01F8016BF9D113F0080F40
:100180001EBF10F8014BAD1C0C1B09D16D1E58BFD2
:1001900001F801CBFAD505E014F8016B01F8016B09
:1001A0006D1EF9D59142D6D370470000704700000C
:1001B0000023002400250026103A28BF78C1FBD870
:1001C000520728BF30C148BF0B6070476E2900F04E
:1001D0007D81702900F0BF8266290BF06F87652949
:1001E0000BF06C8767290BF0698761290BF0688732
:1001F00003681B0A28BF41F08001692900F02A81A9
:10020000642900F02781752900F024816F2900F00E
:100210004D82782900F08B82E92900F0E781E429FA
:1002200000F0E481F52900F0E181EF2900F04A8235
:10023000F82900F08A820368DB0928BF41F08001B9
:10024000632900F08B87732900F09087E32900F081
:100250009B87F32900F0A087002070471FB500F0AE
:10026000F1FF0400002000210BF012FF401C606031
:10027000002000210BF0F6FEE06000F073F81FBDD7
:1002800010B510BD00F0B0FF1146FFF7E7FF0BF00F
:100290002BFA01F08DF803B4FFF7F2FF03BC01F075
:1002A000D7F800000948804709480047FEE7FEE705
:1002B000FEE7FEE7FEE7FEE7FEE7FEE7FEE7FEE716
:1002C00004480549054A064B70470000B97200080A
:1002D000ED00000848190020481F0020481B00209E
:1002E000481B00200FB41CB5084B06AA7B44694686
:1002F0000090059800F003F904460020694600F0DC
:1003000011F920461CBC5DF814FB0000350200000A
:100310004FF0000200B5134694469646203922BF9E
:10032000A0E80C50A0E80C50B1F12001BFF4F7AFE9
:10033000090728BFA0E80C5048BF0CC05DF804EBCB
:10034000890028BF40F8042B08BF704748BF20F839
:10035000022B11F0804F18BF00F8012B7047704737
:100360007047704708487CB5784400900748784447
:10037000009C0546019004E020460168084480473F
:10038000241DAC42F8D17CBD94C7000092C7000088
:1003900070B5044685690068C10601D5302600E0C5
:1003A0002026C00707D070BDD4E901213046904710
:1003B000206A401C20626D1EF6D570BD70B50446E3
:1003C00085690078C00707D170BDD4E901212020DC
:1003D0009047206A401C20626D1EF6D570BD0968EA
:1003E0004A0501D540B27047C905FCD500B2704737
:1003F00009684A0501D5C0B27047C905FCD580B26D
:10040000704770B50C460546012A05D0287880064D
:1004100000D5EA69002302E0012305E05B1C93425A
:1004200002D2E05C0028F9D1A869E618C01AA861D8
:10043000286A184428622846FFF7AAFF04E0D5E995
:10044000012114F8010B9047B442F8D32846FFF776
:10045000B5FF70BD2DE9F0410646002410687529EE
:10046000314616A510D0FFF7BAFF002802DA404245
:1004700013A507E031688A0701D512A502E04907F4
:1004800004D511A5012401E0FFF7B2FF00210A22E3
:1004900006F1240709E0B0FBF2FCB0FBF2F302FB2B
:1004A0001C00303078541846491C0028F3D12346EC
:1004B0002A463046BDE8F04100F061BA0000000075
:1004C0002D0000002B0000002000000011680268D1
:1004D000006A530501D508700AE0D30501D50880EC
:1004E00006E0130603D5C217C1E9000200E0086068
:1004F0000120704701694A1C02610878704700B505
:100500008FB0CDE901310021059105497944CDE94C
:1005100003101146684600F029F90FB000BD000035
:10052000E5FFFFFF0A6802F8010B0A607047000050
:100530002DE9FF5F15468A460446DFF8AC80F84493
:100540000027D8E900103E46CDE9001010E03AF847
:1005500016106A4602A800F023FE411C07D021783D
:10056000890603D5E269391891420DD80744761CF3
:100570002078800602D5E069B84205DDAE42E6DBB0
:100580003AF816000028E2D1A069C01BA0612046FD
:10059000FFF7FEFED8E90010CDE90010002017E0BB
:1005A0003AF818106A4602A800F0FAFDB0F1FF3FD1
:1005B00081460BD000250DF1080B05E0D4E901219F
:1005C0001BF8050090476D1C4D45F7D308F101005D
:1005D000B0428046E4DB206A384420622046FFF7C0
:1005E000EDFEBDE8FF9F000082BB00002DE9F04159
:1005F0008046D21D22F007020025D2E90002F5292B
:1006000015A614D0011E72F1000106DA0023D0EB0A
:10061000030063EB020211A608E0D8F800108B0774
:1006200001D50FA602E0490701D50EA60125114606
:10063000002408F1240704E000F05CF930323A5558
:10064000641C50EA0102F7D12B463246214640464F
:10065000BDE8F04100F093B9000000002D0000005B
:100660002B0000002000000030B4002100F1240421
:1006700008E002F00705D208303542EA4372DB0891
:100680006554491C52EA0305F3D10468002310A203
:10069000250708D504F020040C4304D0C4690123C5
:1006A0000CA2641EC46130BC00F069B910B50446E8
:1006B00021461068FFF79CFE02462046BDE8104028
:1006C0000023D1E7D21D22F00701D1E90023CBE7B7
:1006D0000000000030000000F0B40D46018809055C
:1006E00002D5214C7C4402E01F4C7C440E34002196
:1006F00000F1240608E002F00F071209E75D42EA64
:1007000003721B097754491C52EA0307F3D102789C
:100710000023120704D5702D06D009B1022311342D
:100720002246F0BC00F02BB901231034F8E770B575
:1007300004460D4621461068FFF75AFE0246294638
:100740002046BDE870400023C6E7D21D22F0070313
:10075000D3E90023C0E70368126843F02003036075
:100760000823C3610023B7E7E4B900002DE9F05F77
:10077000894604464FF0000ADFF874B1FB44C0F824
:1007800020A02046E1688847002874D0252806D09C
:10079000D4E901219047206A401C2062F1E700263D
:1007A0005F462046E16888472028054607DB312D53
:1007B00005D2781910F8200C08B10643F1E7B0070C
:1007C00001D526F00406C4F81CA00027C4F818A020
:1007D0002A2D09D028460BF03DFC38B304EB8708DE
:1007E000303DC8F8185019E059F8041B204604EBB6
:1007F00087029161E1688847012F054618D1E069B9
:10080000002820DA26F020061DE0D8F8180000EBBA
:10081000800005EB40003038C8F818002046E16839
:10082000884705460BF016FC0028EED1012F0AD0B0
:100830002E2D08D12046E16888477F1C0546022FEF
:1008400046F02006C4DBA069002803DA404246F0E7
:100850000106A061F00701D026F010066C2D0BD028
:10086000682D09D04C2D39D06A2D35D0742D35D056
:100870007A2D33D016E038E0E1682F4620468847CD
:10088000B842054609D16C2F26D04FF48060E1684C
:10089000064320468847054604E06C2F1AD04FF4E3
:1008A000807006430DB3A5F14100192802D8203508
:1008B00046F400664A462946204626604E46FFF723
:1008C00085FC80B101280BD0F61D26F0070000F151
:1008D000080956E74020E4E78020D8E70020D6E763
:1008E00006F104094DE7284652E7206ABDE8F09F6B
:1008F00074B9000030B5B0F10A0271F100034FEA9B
:10090000900E4EEA817EB0EB0E0061EB91014FEA52
:10091000101E4EEA017E10EB0E0041EB11114FEA62
:10092000102E4EEA016E10EB0E0041EB11214FEA42
:10093000104E4EEA014E10EB0E0041EB11414018F3
:1009400041F100014FEAD00040EA41704FEAD10185
:100950004FEA810444EA907410EB800544EB0104F3
:100960006D1944EB0404521BA3414FF0000348BF30
:100970000A3200D530BD401C41F1000130BD2DE9E7
:10098000F0470D4699469246044600F12408016856
:10099000880604D5E06921F01001216000E0012003
:1009A000A84201DD471B00E00027A1697A1902EB8C
:1009B0000900081AA0612078C00602D42046FFF77B
:1009C000E7FC002608E0D4E901211AF80600904768
:1009D000206A401C761C20624E45F4DB2078C0065D
:1009E0000AD52046FFF7D4FC06E0D4E901213020E7
:1009F0009047206A401C2062381EA7F10107F4DCF2
:100A000007E0D4E9012118F805009047206A401C4E
:100A10002062281EA5F10105F3DC2046FFF7CEFC7D
:100A20002078000602D50220BDE8F0870120FBE710
:100A30002DE9FF4F0C461E464FF0FF378BB0D2E931
:100A40000001DDF860800A908A46C1F30A5505B9B5
:100A50003D46002108464FF00000BAF1000F00F4B7
:100A6000400005DA00EB80004FF4400101EA50003D
:100A70004FEA9059B9F1010F00DDB9460A9850EAE2
:100A80004A000ED044F61050A5F2FF3545432F140E
:100A9000B8F1000F1ED07542291E1EDDC9F10002FB
:100AA0001CE0B8F1010F4FF0000001D0302103E04D
:100AB000F24305E02154401CB042FBDB30460022EB
:100AC000002121540B99C1F80880C1E900200FB022
:100AD000BDE8F08FBD1B6D1CDEE74A4600DA6942B7
:100AE00006A800F0F3FB06AB93E8070003AB83E82E
:100AF000070050460A990AF0D0FE8DE80700A0F5DD
:100B000000501F3800900398002D0ADD42F21F01AB
:100B10004A460844002303A9039068460BF03AF9BB
:100B200009E0A0F500504A461F38002303A90390AE
:100B300068460BF044F98DE807000004000C03D070
:100B40004FF0FF30410800E01046B8F1000F03D02D
:100B50000022009215461EE0751E05D4FFF7CAFE5E
:100B6000303262556D1EF9D5B3460122084302D0DA
:100B700000227F1C04E02078302801D100227F1E53
:100B8000002A099784D01DE0112D07DAFFF7B2FE85
:100B9000303262556D1C50EA0102F5D1084302D093
:100BA0000098C8B10EE00021681E05E0235C625C7D
:100BB00063542254401E491C8142F7DBAB46A81BFC
:100BC000401E0990002004F80B000B98099AC0F809
:100BD0000880C0E9002B7AE711264FF0000857E79C
:100BE0002DE9F04F88460446D21D22F0070191B04E
:100BF000D1E90001CDE90A010BF018FA02460B9881
:100C0000C00F01D02D2007E02068810701D52B20DF
:100C100002E0202101EAC000032A099001D0072A3E
:100C200005DB03464146204600F010FB0BE120782F
:100C3000800601D5E06900E00620B8F1650F814625
:100C400006D0B8F1660F18D0B8F1670F70D131E057
:100C50000020B9F1110F009001DB112301E009F12F
:100C600001030AAA01A90CA8FFF7E2FEDDE90C7056
:100C7000002609F10105834647E001204B4600901C
:100C80004FF000470AAA01A90CA8FFF7D1FEDDE941
:100C90000DB00C995D46002610B909F101000D1840
:100CA000B9EB050003D4C0F1FF3609F10105A5EB4E
:100CB00009002BE0B9F1010F01DA4FF00109002022
:100CC000B9F1110F0090484601DD112300E0034601
:100CD0000AAA01A90CA8FFF7ABFEDDE90C704D468E
:100CE00000268346207800070AD4AB4500DA5D462B
:100CF00001A8012D04DD411911F8011C302907D08C
:100D00004F4502DA17F1040F04DA012082460FE0A2
:100D10006D1EEEE7002F02DCED1B3E4403E0781C65
:100D2000A84200DD7D1CB81B00F1010A4FF000470E
:100D30002078000703D4AA4501DB4FF0FF3A0021D9
:100D4000B7F1004F0DF143088DF8431024D0022075
:100D50002B23002F01DA7F422D230A21021EA0F14E
:100D6000010000DC5FB197FBF1FC97FBF1F201FBA6
:100D70001C7C17460CF1300C08F801CDEEE7A8F109
:100D8000010003702188090501D5452100E0652196
:100D9000A0F1010800F8011C09980FA9A1EB0807B0
:100DA000FF1D00B10120411901EBEA70A16938442F
:100DB000081A401EA0612078C00602D42046FFF722
:100DC000E7FA099828B1D4E901219047206A401C2C
:100DD00020622078C00622D52046FFF7D9FA1EE00F
:100DE000002E04DBB34502DD01A8805D00E0302069
:100DF000D4E901219047206A401C2062761CAAF1A8
:100E000001005FEA000A0AD100F01CFAC06801681C
:100E1000405CD4E901219047206A401C2062281ED2
:100E2000A5F10105DCDC07E0D4E9012118F8010B8C
:100E30009047206A401C2062381EA7F10107F3DCAE
:100E40002046FFF7BBFA032011B041E62DE9F04F31
:100E500004460D46D21D22F0070089B0D0E9009764
:100E6000484639460BF0E2F80246F80F01D02D2330
:100E700007E02068810701D52B2302E0202101EA49
:100E8000C0038DF820300BB1012000E00020032AC0
:100E9000824601D0072A04DB2946204600F0D6F915
:100EA0003FE12078800601D40D2500E0E569C7F315
:100EB0000A560D2D49DA00214FEA175B08464FF01C
:100EC0000000002F00F4400007DA00EB80004FF430
:100ED000400100EBD07001EA60008115012901DDBD
:100EE0004FF0FF3100224FEA850CBCF1180F06D3FA
:100EF0001346ACF118004FF08052C24003E04FF4AB
:100F0000801323FA0CF30CF10C0CBCF1200F04D36A
:100F1000ACF1200C09FA0CF001E007FA0CF0002902
:100F20004FF0004801DD18B90FE00ED140450CD359
:100F300019EB02095F4121B9404502D19F4329EADB
:100F40000209BBEB175F00D0761C2088000502D594
:100F50007B48784402E07A487844193808AA30235C
:100F600002F80A30037C0AF10101002E0AF1020A9C
:100F700053546A4602DC4FF0300101E04FF031017A
:100F80004FF001088DF8001002D0A6F2FF3603E002
:100F900059EA470100D06B4E002D02DC2178090789
:100FA00004D54FF002082E218DF80110C44600210F
:100FB0000BE0C7F303433F01C35C491C6D1E02F8FD
:100FC0000830052908F1010801DA002DF1DC0021C3
:100FD0000CE000EB1973491C1B786D1E082902F800
:100FE00008304FEA091908F1010801DA002DF0DC98
:100FF00021688B0602D516E0A8F10108E04505DD61
:1010000002EB080313F8013C302BF5D0B8F1000FC8
:1010100009DD02EB080313F8013C2E2B03D109076D
:1010200001D4A8F10108002D05DD3E2102F80810C9
:101030006D1E08F10108407C002E02F8080008F13E
:10104000010804DA2D20764202F8080002E02B2085
:1010500002F808000A214FF47A70864208F101086C
:101060000BDB96FBF0F3303302F8083096FBF0F31D
:1010700008F1010800FB136601E0642E0CDB64201C
:1010800096FBF0F3303302F8083096FBF0F308F1EA
:10109000010800FB136601E00A2E06DB96FBF1F067
:1010A000303002F8080008F1010896FBF1F001FB6E
:1010B0001060303002F80800A16908F1010808EB5F
:1010C000050202EB0A00081AA0612078C00602D4CB
:1010D0002046FFF75DF9216A08AE01EB0A002062A5
:1010E00004E0D4E9012116F8010B9047BAF1010A96
:1010F000F7D22078C00602D52046FFF749F96E46A0
:1011000009E016F8010B3E280FD0D4E901219047E1
:10111000206A401C2062B8F10108F2D22046FFF795
:101120004DF909B00320BDE8F08F206A2844206201
:1011300003E0D4E90121302090476D1EEBD3F8E79E
:10114000C2B1000002FCFFFF10B5436913B1AFF359
:10115000008001E0FFF755F9012010BD127800F181
:1011600024010A7000224A700122EDE711684FF055
:10117000FF32E9E710B5436913B1AFF3008001E036
:10118000FFF7D6F9012010BD128800F124018284F6
:101190000022C2840122EDE711684FF0FF32E9E737
:1011A0002DE9F04116460C46054600F043F8036869
:1011B00093F80101012807D0FF2C12D8185D80B1E7
:1011C00001202C70BDE8F081D3F80701324621469A
:1011D00003F20713C7182846BC46BDE8F0410023B8
:1011E00060474FF0FF30EDE7754600F0EBF8AE4694
:1011F00005006946534620F00700854618B020B523
:10120000FFF75EF8BDE820404FF000064FF0000702
:101210004FF000084FF0000BAC46ACE8C009ACE85A
:10122000C009ACE8C009ACE8C00921F007018D464F
:101230007047000010B500F005F8001D10BD00BF9C
:1012400051AE000000487047A00100202DE9F04198
:101250001F46044603260168072A01F4006004DBE8
:1012600008B116A505E016A503E008B115A500E034
:1012700015A521F010002060A069C01EA0610FB16B
:10128000401EA0612046FFF783F84FB1D4E9012149
:1012900038469047206A401C2062C01C206206E04D
:1012A000206AFAE7D4E9012115F8010B9047761E70
:1012B000F8D22046FFF782F8BDE8F0814E414E009B
:1012C0006E616E00494E4600696E66002DE9F0477A
:1012D000814616468AB0354878440DC88DE80D0021
:1012E00032487844801C03AC0DC884E80D0041F6F8
:1012F0009B300844372190FBF1F290FBF1F5A5F10A
:10130000800501FB12041B3C02D56442012000E071
:101310000020DFF898A080460027FA44AAF1BE0A10
:101320000EE0E0070AD03246684607EB470101238A
:101330000AEB81010AF043FD8DE8070064107F1C71
:10134000002CEED1194F7F44AE3F19E0E80715D0CD
:1013500007EB04100DF1180A90E80E008AE80E0061
:10136000C068F04201D1981908903246012306A9BD
:1013700003A80AF024FD03AB83E807006D10641C8A
:10138000002DE3D14FF0010332466946B8F1000F5A
:1013900003A802D00AF0FEFC01E00AF010FDC9E942
:1013A0000001C9F808200AB0BDE8F087CCAE000003
:1013B00010B50446AFF300802046BDE81040FEF7AC
:1013C0006ABF000000487047800100204FF0013CD8
:1013D00050F8042B51F8043B9A4221D1A2EB0C03A4
:1013E000934313EACC1317D150F8042B51F8043B64
:1013F0009A4215D1A2EB0C03934313EACC130BD101
:1014000050F8042B51F8043B9A4209D1A2EB0C038B
:10141000934313EACC13DBD04FF00000704700BFBA
:10142000D01A01BAB1FA81F101F0180122FA01F0E3
:10143000CB40DBB2C0B2C01AC1F120012CFA01F3DB
:10144000D11A914311EAC311E6D1704770470000E9
:1014500001491820ABBEFEE726000200FFE7FEE7C9
:1014600084B08DF80F000291ADF806209DF80F00B2
:101470000146009123281DD80099DFE801F01213DE
:101480001415161B1B1B1B1B1B1B1B1B1B1B1B1BBE
:101490001B1B1B1B1B1B1B1B1B1B1B1B1B1B1718A3
:1014A000191A08E007E006E005E004E003E002E0C6
:1014B00001E000E0FFE7002004B070470020704723
:1014C00080B582B041F2E020C2F20000009040F608
:1014D000DC61C2F200010022019206F0CFF900980F
:1014E00040F6DC21C2F2000106F0BAF9019802B020
:1014F00080BD000080B584B003900291039941F251
:10150000E020C2F20000019006F0AAF9019806F06E
:1015100061F903980299098807F0E2FD002004B000
:1015200080BD000080B586B00490ADF80E1000209C
:101530008DF80D0041F2E020C2F20000D0F8B802B0
:1015400002900298D0F8140220B1FFE701208DF834
:10155000170013E00499BDF80E2041F2E020C2F21A
:101560000000019006F08AF9019806F04DFA8DF816
:101570000D009DF80D008DF81700FFE79DF817008E
:1015800006B080BD81B04EF6FC51CEF20001086875
:1015900020F080700860086840F08070086041F2B8
:1015A0000001CEF20001086820F001000860086820
:1015B00040F00100086041F20400CEF2000000217A
:1015C000016000BF00BF00BF006818B1FFE7002046
:1015D000009002E001200090FFE7009801B0704702
:1015E0007047000080B5022000F0D4F880BD0000F4
:1015F00081B0EFF3108072B60090FFE7FEE70000C5
:1016000080B584B04FF2E870C1F6FF7000680390B7
:101610004FF2EC70C1F6FF70006802904FF2F0706C
:10162000C1F6FF7000680190019903980844039087
:10163000039888B1FFE7039840F26011C2F20001FD
:1016400000910231082205F0A7F9009902981231A1
:10165000042205F0A1F9FFE704B080BD80B588B091
:10166000079000208DF81B00079890F821000228B1
:1016700007D0FFE707990420886301208DF81B003D
:1016800076E007980168086820F00E000860079867
:101690000168086820F001000860079800680821C8
:1016A000C4F20201884203D1FFE70120059047E020
:1016B000079800681C21C4F20201884203D1FFE7A9
:1016C0001020049039E0079800683021C4F202012C
:1016D000884204D1FFE74FF4807003902AE0079816
:1016E00000684421C4F20201884204D1FFE74FF4AC
:1016F000805002901BE0079800685821C4F2020154
:10170000884204D1FFE74FF4803001900CE0079845
:1017100001686C22C4F202024FF08070914208BF4F
:101720004FF480100190FFE701980290FFE70298C4
:101730000390FFE703980490FFE704980590FFE704
:1017400005980421C4F2020108600799012081F87C
:101750002100FFE70799002081F82000FFE70798A4
:10176000406B20B1FFE70798416B8847FFE7FFE731
:101770009DF81B0008B080BD81B00090009890F8E3
:10178000210001B07047000081B0ADF8020001B047
:101790007047000080B582B0ADF8060040F21440FA
:1017A000C4F201000068BDF8061008420CD0FFE743
:1017B000BDF8060040F21441C4F201010860BDF812
:1017C0000600FFF7E1FFFFE702B080BD90B00F9089
:1017D0000E9100200D900990FFE70E9800680D997A
:1017E000C840002800F07F81FFE70D990120884064
:1017F0000C900E9800680C9908400B900B980C996F
:10180000884240F06C81FFE70E9840680590002800
:1018100051D0FFE7059801283AD0FFE70598022844
:101820003FD0FFE7059803285FD0FFE70598112810
:1018300032D0FFE70598122838D0FFE7059800213D
:10184000C1F21101884236D0FFE705980021C1F2AC
:10185000120188422FD0FFE705980021C1F2210133
:10186000884228D0FFE705980021C1F22201884272
:1018700021D0FFE705980021C1F2310188421AD03A
:10188000FFE705980021C1F23201884213D02FE012
:101890000E98C06809902CE00E98C068043009903A
:1018A00027E00E98C0680830099022E00E98C068C2
:1018B0000C3009901DE00E98806818B9FFE70420ED
:1018C000099011E00E988068012806D1FFE70820F2
:1018D00009900C980F99086105E0082009900C9870
:1018E0000F994861FFE7FFE703E00020099000E05F
:1018F000FFE70B98FF2803D8FFE70F98049003E059
:101900000F9804300490FFE7049808900B98FF2884
:1019100004D8FFE70D988000039006E00D996FF062
:101920001F0000EB81000390FFE7039807900898E1
:101930000068079A0F219140884309999140084314
:10194000089908600E98C079C006002840F1C6804A
:10195000FFE7FFE741F21800C4F20200016841F01E
:1019600001010160006800F0010006900698FFE7A1
:101970000D9820F003000821C4F2010140580A909C
:101980000D9800F0030081000F2000FA01F10A9881
:1019900088430A900F9840F60001C4F20101884282
:1019A00003D1FFE70020029026E00F9840F60041A7
:1019B000C4F20101884203D1FFE70120019018E041
:1019C0000F9841F20001C4F20101884203D1FFE700
:1019D000022000900AE00F9941F20042C4F2010295
:1019E0000420914208BF03200090FFE70098019077
:1019F000FFE701980290FFE702980D9901F00301BB
:101A0000890000FA01F10A9808430A900A980D9992
:101A100021F003010822C4F2010288500E98807957
:101A2000C006002809D5FFE70B9A40F20841C4F22E
:101A3000010108681043086008E00B9A40F2084171
:101A4000C4F20101086890430860FFE70E988079AE
:101A50008006002809D5FFE70B9A40F20C41C4F23A
:101A6000010108681043086008E00B9A40F20C413D
:101A7000C4F20101086890430860FFE70E9880797E
:101A80008007002809D5FFE70B9A40F20441C4F211
:101A9000010108681043086008E00B9A40F2044115
:101AA000C4F20101086890430860FFE70E9880794E
:101AB000C00748B1FFE70B9A40F20041C4F20101B0
:101AC00008681043086008E00B9A40F20041C4F235
:101AD0000101086890430860FFE7FFE7FFE70D9802
:101AE00001300D9079E610B07047000082B001908F
:101AF000ADF8021001988068BDF80210084204D0C9
:101B0000FFE701208DF8010003E000208DF80100BF
:101B1000FFE79DF8010002B07047000083B002901B
:101B2000ADF806100298C0680090009ABDF8060053
:101B300002EA0001904340EA01400299086103B0C3
:101B40007047000082B00190ADF802108DF80120BE
:101B50009DF8010028B1FFE7BDF802000199086176
:101B600005E0BDF80200000401990861FFE702B03A
:101B70007047000041F64010C2F200000068704754
:101B800081B0009001B0704782B001908DF80310D1
:101B9000ADF8002002B0704780B58AB0099009986E
:101BA000006840690490099800684068039000202C
:101BB0000290099890F83E008DF807009DF81100FA
:101BC000C007A8B1FFE79DF80D00C00780B1FFE78F
:101BD000029840F001000290099801686FF480704B
:101BE000486109980168086840F400400860FFE710
:101BF0009DF8110000F002010020B0EB510F0FD052
:101C0000FFE79DF80D00C00750B1FFE7029840F0D4
:101C100002000290099801686FF400704861FFE7C4
:101C20009DF8110000F004010020B0EB910F50D09E
:101C3000FFE79DF80D00C00700284AD0FFE79DF898
:101C400007008DF823000998408D0790099890F8B7
:101C50003D008DF81B000998006B05909DF823004E
:101C600020281AD1FFE70798B8B9FFE79DF81B00B5
:101C700021280ED0FFE79DF81B00292809D0FFE797
:101C80009DF81B00282808D1FFE70598212804D1DA
:101C9000FFE7099804F0D4FA1AE0099801686FF494
:101CA00080604861029840F0040002909DF80700AF
:101CB000102805D0FFE79DF80700402807D1FFE76F
:101CC00009980168086840F400700860FFE7FFE7C2
:101CD000FFE79DF8110000F008010020B0EBD10FE4
:101CE0000FD0FFE79DF80D00C00750B1FFE7029845
:101CF00040F008000290099801686FF400604861A4
:101D0000FFE7029848B1FFE7029A0999086C10436F
:101D10000864099803F090F9FFE70AB080BD00005D
:101D200080B588B00790002005900798006840684B
:101D300004900798C06A0390079890F83E008DF8C9
:101D40000B00079890F83D008DF80A009DF80B00F5
:101D5000102806D0FFE79DF80B00402840F00081D6
:101D6000FFE7079800688069059007980068406958
:101D700006900698C007A0B9FFE703990120B1F5C6
:101D80002A0F019008D0FFE7039800F1AC40B0FAA9
:101D900080F040090190FFE70198C00708B1FFE714
:101DA000A1E10698C00780B1FFE79DF8110000F09F
:101DB00002010020B0EB510F07D0FFE7079803F0B6
:101DC00063F8079803F09EFFC9E09DF8180000F043
:101DD00008010020B0EBD10F0DD0FFE79DF81100F6
:101DE00000F002010020B0EB510F04D0FFE707988C
:101DF00003F0B8FDB2E09DF8180000F002010020E9
:101E0000B0EB510F0DD0FFE79DF8110000F002017B
:101E10000020B0EB510F04D0FFE7079803F0C6FD98
:101E20009BE09DF8140000F004010020B0EB910F3E
:101E300050D0FFE707980068406800F40060B0F5F4
:101E4000006F46D0FFE79DF818100020B0EBD11FBF
:101E500016D0FFE79DF8110000F004010020B0EB60
:101E6000910F0DD0FFE79DF8180000F0040100204D
:101E7000B0EB910F04D1FFE7079803F0D3FC27E004
:101E80009DF8180000F004010020B0EB910F1DD068
:101E9000FFE79DF8110000F002010020B0EB510FA8
:101EA00014D0FFE79DF80A00212804D1FFE7079826
:101EB00003F048FC09E09DF80B00402804D1FFE73F
:101EC000079803F097FFFFE7FFE700E0FFE7FFE772
:101ED000FFE741E007980068406800F40060B0F553
:101EE000006F38D0FFE79DF8180000F04001002097
:101EF000B0EB911F16D0FFE79DF8110000F0040130
:101F00000020B0EB910F0DD0FFE79DF8180000F016
:101F100004010020B0EB910F04D1FFE7079803F014
:101F2000D1FA17E09DF8180000F004010020B0EB92
:101F3000910F0DD0FFE79DF8110000F00201002085
:101F4000B0EB510F04D0FFE7079803F0E5F900E08C
:101F5000FFE7FFE7FFE7FFE7FFE7FFE7FFE7C2E095
:101F60000798006C28B1FFE7079800684069069061
:101F700008E0079800688069059007980068406944
:101F80000690FFE79DF8180000F002010020B0EB7A
:101F9000510F17D0FFE79DF8110000F0020100205B
:101FA000B0EB510F0ED0FFE70798006C28B1FFE7A8
:101FB0000798006880690590FFE70798059904F085
:101FC000E7F88FE09DF8180000F010010020B0EB5A
:101FD000111F0DD0FFE79DF8110000F00201002055
:101FE000B0EB510F04D0FFE7079804F09BF978E0BD
:101FF0009DF80A00212805D0FFE79DF80A0029284E
:1020000036D1FFE79DF818100020B0EBD11F16D095
:10201000FFE79DF8110000F004010020B0EB910FE4
:102020000DD0FFE79DF8180000F004010020B0EB90
:10203000910F04D1FFE7079804F074F817E09DF8BA
:10204000180000F004010020B0EB910F0DD0FFE765
:102050009DF8110000F002010020B0EB510F04D0F8
:10206000FFE7079804F048F800E0FFE7FFE737E0F4
:102070009DF8180000F040010020B0EB911F16D031
:10208000FFE79DF8110000F004010020B0EB910F74
:102090000DD0FFE79DF8180000F004010020B0EB20
:1020A000910F04D1FFE7079803F0EEFF17E09DF8CA
:1020B000180000F004010020B0EB910F0DD0FFE7F5
:1020C0009DF8110000F002010020B0EB510F04D088
:1020D000FFE7079803F0C0FF00E0FFE7FFE7FFE737
:1020E000FFE7FFE7FFE708B080BD000081B0009088
:1020F00001B0704780B58EB00C900C9820B9FFE706
:1021000001208DF8370043E10C9890F83D0040B96C
:10211000FFE70C99002081F83C000C9800F05CFB74
:10212000FFE70C99242081F83D000C9801680868AD
:1021300020F0010008600C980168086840F4004035
:1021400008600C980168086820F40040086002F0FC
:10215000CBF80A900C98406848F2A061C0F20101E7
:1021600088420BD8FFE70A9948F28042C0F21E026B
:102170000020914238BF012009900AE00A9940F6F8
:102180000012C0F23D020020914238BF01200990A8
:10219000FFE70998012804D1FFE701208DF83700F7
:1021A000F6E00A984DF68361C4F21B31A0FB0110E2
:1021B000800C0B900C980068406820F03F000B9951
:1021C00008430C99096848600C980068006A20F080
:1021D0003F0008900C98406848F2A061C0F20101ED
:1021E000884204D8FFE70B98013007900EE00B9867
:1021F0004FF49671484344F6D351C1F26201A0FBFB
:102200000101012000EB91100790FFE70898079962
:1022100008430C99096808620C980068C0694CF67C
:10222000FF71884306900C98406848F2A061C0F2A4
:10223000010188421FD8FFE70A9801380C994968C4
:102240004900B0FBF1F001306FF31F30032803D8D1
:10225000FFE7042005900BE00A9801380C994968C3
:102260004900B0FBF1F001306FF31F300590FFE73C
:10227000059804904CE00C98806868B9FFE70A98CC
:1022800001380C99496801EB4101B0FBF1F00130D4
:102290006FF31F3003900DE00A9801380C994968DC
:1022A00019225143B0FBF1F00130042161F31F30DA
:1022B0000390FFE70398000518B9FFE7012002909B
:1022C00023E00C98806868B9FFE70A9801380C99F8
:1022D000496801EB4101B0FBF1F001306FF31F30B1
:1022E00001900DE00A9801380C9949681922514370
:1022F000B0FBF1F00130042161F31F300190FFE7E2
:10230000019840F400400290FFE702980490FFE734
:102310000698049908430C990968C8610C980068EC
:10232000006820F0C0000C9B1968DA691B6A1A4328
:10233000104308600C980068806848F2FF318843B9
:102340000C9A1168D36812691A43104388600C987C
:102350000068C06820F0FF000C9B19685A699B69EF
:102360001A431043C8600C980168086840F00100E7
:1023700008600C99002008640C9A202182F83D1016
:102380000C9908630C9981F83E008DF83700FFE73F
:102390009DF837000EB080BD81B0009001B070474D
:1023A00081B0009001B0704781B0009001B07047DB
:1023B00080B588B0DDF828C00690ADF816100492FC
:1023C000ADF80E30FFF7D6FB0290069890F83D006E
:1023D000202840F0E980FFE7069802996A461160DC
:1023E0000221C0F210010122192304F017F920B1D3
:1023F000FFE702208DF81F00DAE0FFE7069890F86B
:102400003C00012804D1FFE702208DF81F00CFE037
:102410000699012081F83C00FFE7FFE70698006875
:102420000068C00738B9FFE706980168086840F0FF
:1024300001000860FFE706980168086820F4006062
:1024400008600699212081F83D000699102081F846
:102450003E00069900200864049806994862BDF879
:102460000E00069948850698408D069908850699BC
:102470000020CFF6FF70C8620698BDF816100A9AC1
:10248000029B03F0D5F820B1FFE701208DF81F0073
:102490008EE0FFE7002001900698006840690190F7
:1024A00006980068806901900198FFE7FFE70698A9
:1024B000008D002860D0FFE706980A99029A04F080
:1024C00017FA80B1FFE70698006C042807D1FFE7F0
:1024D00006980168086840F400700860FFE7012072
:1024E0008DF81F0064E006980168406A0078086172
:1024F0000699486A013048620699488D0138488536
:102500000699088D0138088506980068406900F032
:1025100004010120B0EB910F16D1FFE70698008D62
:1025200090B1FFE706980168406A00780861069953
:10253000486A013048620699488D013848850699F5
:10254000088D01380885FFE706980A99029A04F079
:102550000FF880B1FFE70698006C042807D1FFE769
:1025600006980168086840F400700860FFE70120E1
:102570008DF81F001CE09AE706980168086840F48F
:10258000007008600699202081F83D00069900201F
:1025900081F83E00FFE70699002081F83C00FFE744
:1025A00000208DF81F0003E002208DF81F00FFE7D8
:1025B0009DF81F0008B080BD81B0009001B0704749
:1025C00081B0009001B0704710B588B084460C9877
:1025D0000B98DDF828E0CDF818C0ADF81610ADF86E
:1025E0001420ADF81230ADF81000FFF7C3FA0390D5
:1025F000069890F83D00202840F0E680FFE7069816
:1026000003996A4611600221C0F2100101221923C8
:1026100004F004F820B1FFE702208DF81F00D7E096
:10262000FFE7069890F83C00012804D1FFE702205C
:102630008DF81F00CCE00699012081F83C00FFE7EF
:10264000FFE7069800680068C00738B9FFE70698FA
:102650000168086840F001000860FFE7069801681B
:10266000086820F4006008600699212081F83D0088
:102670000699402081F83E000699002008640A98D7
:1026800006994862BDF81000069948850698408D65
:102690000699088506990020CFF6FF70C862069853
:1026A000BDF81610BDF81420BDF81230DDF830C0AA
:1026B000039CEE46CEF80440CEF800C003F02EFC9A
:1026C00020B1FFE701208DF81F0081E0FFE70698A9
:1026D000008D002849D0FFE706980C99039A04F072
:1026E00007F980B1FFE70698006C042807D1FFE7DF
:1026F00006980168086840F400700860FFE7012050
:102700008DF81F0064E006980168406A007808614F
:102710000699486A013048620699088D0138088593
:102720000699488D0138488506980068406900F090
:1027300004010120B0EB910F16D1FFE70698008D40
:1027400090B1FFE706980168406A00780861069931
:10275000486A013048620699088D01380885069953
:10276000488D01384885FFE7B1E706980C99039A30
:1027700003F0FEFE80B1FFE70698006C042807D145
:10278000FFE706980168086840F400700860FFE7FA
:1027900001208DF81F001BE006980168086840F4CE
:1027A000007008600699202081F83D0006990020FD
:1027B00081F83E00FFE70699002081F83C00FFE722
:1027C00000208DF81F0003E002208DF81F00FFE7B6
:1027D0009DF81F0008B010BD80B58AB00990002098
:1027E00008900790069005900998006845F200410E
:1027F000C4F2000188423FD1FFE7FFE741F2180031
:10280000C4F20200016841F008010160006800F0B4
:10281000080004900498FFE7C0200590122006905D
:102820000320089040F60040C4F2010005A9FEF71D
:10283000CDFFFFE741F21C00C4F20200016841F441
:1028400000110160006800F4001003900398FFE796
:102850001F20009000220192114600F009F9009813
:1028600000F0FCF8019A20200290114600F000F9D7
:10287000029800F0F3F8FFE70AB080BD81B0009045
:1028800001B0704781B0009001B0704780B584B04E
:102890000290029820B9FFE701208DF80F0039E07F
:1028A000029801684CF6CC4008600298016845F235
:1028B00055500860029801684068486002980168B5
:1028C00080688860FFF756F90190FFE7029800687A
:1028D000C0688007A8B1FFE7FFF74CF90199401ADB
:1028E00041F23D3188420BD3FFE702980068C0688F
:1028F000800720B1FFE703208DF80F000AE0FFE713
:10290000E4E7029801684AF6AA20086000208DF8E2
:102910000F00FFE79DF80F0004B080BD81B000906C
:10292000009801684AF6AA200860002001B07047AC
:1029300040F27A10C2F20000027841F64011C2F271
:1029400000010868104408607047000080B542F23A
:102950000001C4F20201086840F010000860032082
:1029600000F0A0F80F2000F005F800F03BF8002080
:1029700080BD000080B582B0009040F22400C2F219
:102980000000006840F27A11C2F200010A784FF4A8
:102990007A71B1FBF2F1B0FBF1F002F067F820B10F
:1029A000FFE701208DF8070018E000980F280DD8E8
:1029B000FFE700994FF0FF30002200F059F800982F
:1029C00040F27C11C2F20001086003E001208DF8A2
:1029D000070003E000208DF80700FFE79DF80700DF
:1029E00002B080BD80B584B0FFE741F21800C4F2A8
:1029F0000200016841F001010160006800F001007F
:102A000003900398FFE7FFE741F21C00C4F20200C5
:102A1000016841F080510160006800F08050029030
:102A20000298FFE7052000900022114600F020F8F0
:102A3000009800F013F8FFE70421C4F201010868D0
:102A40000190019820F0E0600190019840F0007042
:102A5000019001980860FFE704B080BD80B582B0A6
:102A60008DF807009DF9070008F0D2FD02B080BD87
:102A700080B586B08DF81700049103920020029073
:102A800008F0DEFD02909DF917000190029804996C
:102A9000039A04F003F80146019808F0D9FD06B046
:102AA00080BD000080B582B00190019808F0F2FD71
:102AB00002B080BD84B00390ADF80A10ADF80820D4
:102AC0000193BDF80A00000600280CD5FFE7039823
:102AD000BDF80A1001F0070101EB810100EBC10014
:102AE000103000900AE00398BDF80A1001EB810154
:102AF00000EBC10000F5A8700090FFE7BDF80800EA
:102B000038B9FFE700990020087301980099C88040
:102B10000AE0009901200873019800990881BDF826
:102B2000060000994881FFE7002004B070470000CC
:102B300082B001908DF803109DF80300012801D1A7
:102B4000FFE700E0FFE702B07047000080B582B009
:102B500001908DF80310019AD2F8D4029DF8031069
:102B600001EB810302EBC302526A05F0BFFB02B026
:102B700080BD000080B582B001908DF80310019AED
:102B8000D2F8D4029DF8031001EB810302EBC302DB
:102B9000D2F8642105F05CFC02B080BD80B584B041
:102BA00002908DF807109DF80700000600280FD549
:102BB000FFE702989DF8071001F0070101EB810182
:102BC00000EBC100103000900099012048700FE028
:102BD00002989DF8071001F0070101EB810100EB5D
:102BE000C10000F5A8700090009900204870FFE730
:102BF0009DF8070000F0070000990870FFE70298B1
:102C000090F89002012804D1FFE702208DF80F0010
:102C100014E00299012081F89002FFE7FFE7029893
:102C20000068009906F0D0FDFFE70299002081F8C6
:102C30009002FFE700208DF80F00FFE79DF80F00DE
:102C400004B080BD80B584B002908DF807109DF867
:102C5000070000F00F0002990979884204D9FFE7C4
:102C600001208DF80F004DE09DF8070000060028B8
:102C70000FD5FFE702989DF8071001F0070101EB5F
:102C8000810100EBC10010300090009901204870D4
:102C90000FE002989DF8071001F0070101EB810198
:102CA00000EBC10000F5A87000900099002048706A
:102CB000FFE70099002088709DF8070000F00700EA
:102CC00000990870FFE7029890F89002012804D15B
:102CD000FFE702208DF80F0014E00299012081F82F
:102CE0009002FFE7FFE702980068009906F05CFF9A
:102CF000FFE70299002081F89002FFE700208DF89D
:102D00000F00FFE79DF80F0004B080BD80B586B0CE
:102D100005900491ADF80E20BDF80E004004002887
:102D200077D5FFE705980068B0F850000499097856
:102D300000EBC1010598006800EB4100B0F8040405
:102D40006FF39F20ADF80C0004988069BDF80C105B
:102D5000884207D3FFE7BDF80C2004998869801AE0
:102D6000886103E0049900208861FFE70498806986
:102D7000F8B9FFE7FFE7059800680499097830F88B
:102D800021004BF68F710840ADF80A00BDF80A002B
:102D900080F40050ADF80A00BDF80A0048F2800146
:102DA000084305990968049A127821F82200FFE780
:102DB000FFE7BDF80E00400600281BD5FFE7FFE740
:102DC000FFE7059800680499097830F8210048F673
:102DD0008F710840ADF80800BDF8080048F2C00146
:102DE000084305990968049A127821F82200FFE740
:102DF000FFE7FFE7BDF80C0050B1FFE7059800685A
:102E0000049A51691289BDF80C3007F0E3FEFFE720
:102E100076E005980068B0F850000499097800EB56
:102E2000C1010598006800EB4100B0F80C046FF395
:102E30009F20ADF80C0004988069BDF80C10884202
:102E400007D3FFE7BDF80C2004998869801A8861D0
:102E500003E0049900208861FFE704988069F8B9CD
:102E6000FFE7FFE7059800680499097830F821002A
:102E70004BF68F710840ADF80600BDF8060080F4EF
:102E80000050ADF80600BDF8060048F28001084386
:102E900005990968049A127821F82200FFE7FFE7F4
:102EA000BDF80E00400600281BD4FFE7FFE7FFE750
:102EB000059800680499097830F8210048F68F7168
:102EC0000840ADF80400BDF8040048F2C001084312
:102ED00005990968049A127821F82200FFE7FFE7B4
:102EE000FFE7BDF80C0050B1FFE705980068049AB1
:102EF00051695289BDF80C3007F06CFEFFE7FFE71F
:102F0000BDF80C0006B080BD80B5A6B02590249118
:102F1000ADF88E20BDF88E004006002840F1BB8140
:102F2000FFE725980068B0F850002499097800EB75
:102F3000C1012598006800EB4100B0F804046FF36C
:102F40009F20ADF8860024988069BDF886108842DD
:102F500007D9FFE7BDF8862024998869801A88611F
:102F600003E0249900208861FFE724988069002805
:102F700040F0B080FFE7FFE72498407808BBFFE708
:102F8000FFE725980068209025980068B0F8501059
:102F900020980844209020982499097800EB01108B
:102FA00000F204401F90FFE71F9908886FF39F20ED
:102FB00008801F99088840F400400880FFE7FFE779
:102FC0001DE024984078012818D1FFE7FFE72598F5
:102FD00000681D9025980068B0F850101D980844AE
:102FE0001D901D982499097800EB011000F204400F
:102FF0001C901C9900200880FFE7FFE7FFE7FFE730
:10300000FFE7259800681B902498407808BBFFE7ED
:10301000FFE725980068199025980068B0F85010CF
:1030200019980844199019982499097800EB01100F
:1030300000F20C401890FFE7189908886FF39F2062
:1030400008801899088840F400400880FFE7FFE7EF
:1030500018E024984078012813D1FFE725980068EC
:10306000B0F850101B9808441B901B9824990978BD
:1030700000EB011000F20C401A901A990020088011
:10308000FFE7FFE7FFE7259824990978FFF75EFD42
:10309000BDF88E00400400281BD5FFE7FFE7FFE7DF
:1030A000259800682499097830F8210048F68F7136
:1030B0000840ADF85A00BDF85A004CF280010843B0
:1030C00025990968249A127821F82200FFE7FFE782
:1030D000FFE7DFE0BDF88E00400400281BD5FFE7C6
:1030E000FFE7FFE7259800682499097830F8210068
:1030F00048F68F710840ADF85800BDF858004CF202
:103100008001084325990968249A127821F8220041
:10311000FFE7FFE7FFE7249890F82400012840F03C
:10312000B880FFE7BDF886202499486910444861BB
:10313000BDF886202499C8691044C86124980169A3
:10314000006A884209D3FFE7249800692290229AF6
:103150002499086A801A086216E02498006A40B927
:10316000FFE7BDF8860022902499002081F8240012
:1031700009E02499002081F824002499096A229109
:1031800024990862FFE7FFE7FFE7249840780028CA
:1031900056D1FFE7FFE7259800681590259800684D
:1031A000B0F850101598084415901598249909788E
:1031B00000EB011000F204401490FFE71499088816
:1031C0006FF39F20088022983F2817D3FFE7FFE77F
:1031D0002298400913909DF88800C00620B9FFE7A7
:1031E000139801381390FFE7139A1499088840EA5E
:1031F000822040F400400880FFE71EE0229830B9AA
:10320000FFE71499088840F40040088014E0FFE7C5
:103210002298400813909DF88800C00720B1FFE76E
:10322000139801301390FFE7139A1499088840EA25
:1032300082200880FFE7FFE7FFE7FFE7FFE71DE0E9
:1032400024984078012818D1FFE7FFE72598006807
:10325000129025980068B0F8501012980844129007
:1032600012982499097800EB011000F204401190A3
:10327000229811990880FFE7FFE7FFE7FFE725980D
:103280000068249A51691289BDF8883007F000FD62
:10329000FFE7FFE7B7E125980068B0F850002499F0
:1032A000097800EBC1012598006800EB4100B0F8F7
:1032B0000C046FF39F20ADF8860024988069BDF858
:1032C0008610884207D3FFE7BDF8862024998869D5
:1032D000801A886103E0249900208861FFE7249820
:1032E0008069002840F0B080FFE7FFE7249840782D
:1032F00008BBFFE7FFE72598006810902598006855
:10330000B0F850101098084410901098249909783B
:1033100000EB011000F204400F90FFE70F990888BE
:103320006FF39F2008800F99088840F400400880C0
:10333000FFE7FFE71DE024984078012818D1FFE758
:10334000FFE7259800680D9025980068B0F85010A8
:103350000D9808440D900D982499097800EB011000
:1033600000F204400C900C9900200880FFE7FFE772
:10337000FFE7FFE7FFE7259800680B902498407867
:1033800008BBFFE7FFE725980068099025980068CB
:10339000B0F85010099808440990099824990978C0
:1033A00000EB011000F20C400890FFE70899088834
:1033B0006FF39F2008800899088840F40040088037
:1033C000FFE7FFE718E024984078012813D1FFE7D2
:1033D00025980068B0F850100B9808440B900B9893
:1033E0002499097800EB011000F20C400A900A9928
:1033F00000200880FFE7FFE7FFE725982499097878
:10340000FFF7A4FBBDF88E00400400281BD4FFE7A3
:10341000FFE7FFE7259800682499097830F8210034
:1034200048F68F710840ADF81A00BDF81A004CF24A
:103430008001084325990968249A127821F822000E
:10344000FFE7FFE7FFE7DDE0BDF88E00400400285E
:103450001BD4FFE7FFE7FFE7259800682499097868
:1034600030F8210048F68F710840ADF81800BDF81B
:1034700018004CF28001084325990968249A1278B3
:1034800021F82200FFE7FFE7FFE7249890F82400E7
:10349000012840F0B680FFE7BDF8862024994869EE
:1034A00010444861BDF886202499C8691044C86159
:1034B00024980169006A884209D3FFE724980069CB
:1034C0002290229A2499086A801A086216E02498A9
:1034D000006A40B9FFE7BDF88600229024990020D9
:1034E00081F8240009E02498006A229024990020A1
:1034F0000862249981F82400FFE7FFE7FFE7259899
:103500000068059024984078002856D1FFE7FFE72F
:1035100025980068039025980068B0F8501003982B
:103520000844039003982499097800EB011000F2F5
:103530000C400290FFE7029908886FF39F200880F3
:1035400022983F2817D3FFE7FFE722984009019010
:103550009DF88800C00620B9FFE701980138019066
:10356000FFE7019A0299088840EA822040F400406F
:103570000880FFE71EE0229830B9FFE7029908882B
:1035800040F40040088014E0FFE7229840080190D2
:103590009DF88800C00720B1FFE701980130019035
:1035A000FFE7019A0299088840EA82200880FFE735
:1035B000FFE7FFE7FFE7FFE718E0249840780128DE
:1035C00013D1FFE725980068B0F85010059808441B
:1035D000059005982499097800EB011000F20C4041
:1035E0000490229804990880FFE7FFE7FFE72598F9
:1035F0000068249A51695289BDF8883007F048FB69
:10360000FFE7FFE7FFE7FFE72598006824990978BF
:1036100030F8210048F6BF710840ADF80200BDF84F
:10362000020080F01000ADF80200BDF8020080F04A
:103630002000ADF80200BDF8020048F28001084306
:1036400025990968249A127821F82200FFE70020C2
:1036500026B080BD82B001908DF8031001989DF8CE
:10366000031001F0070101EB810100EBC100D0F86C
:103670006C0102B07047000080B586B004908DF8F0
:103680000F10ADF80C208DF80B3000208DF80A00DB
:103690009DF80F00000600280FD5FFE704989DF85D
:1036A0000F1001F0070101EB810100EBC1001030A8
:1036B00001900199012048700FE004989DF80F10C7
:1036C00001F0070101EB810100EBC10000F5A870DA
:1036D0000190019900204870FFE79DF80F0000F06D
:1036E000070001990870BDF80C00019908619DF868
:1036F0000B000199C8709DF80B00022804D1FFE768
:10370000019900200871FFE7FFE7049890F8900204
:10371000012804D1FFE702208DF8170015E0049975
:10372000012081F89002FFE7FFE704980068019903
:1037300005F0EEFCFFE70499002081F89002FFE716
:103740009DF80A008DF81700FFE79DF8170006B0F6
:1037500080BD000080B586B005908DF813100392EF
:10376000029305989DF8131001F0070101EB810108
:1037700000EBC10000F5A870019003980199486121
:10378000029801998861019900200090C86101990F
:1037900048709DF8130000F0070001990870059823
:1037A0000068019906F0E8FA009806B080BD0000B4
:1037B00080B584B002908DF807109DF8070000F0E6
:1037C000070002990979884204D9FFE701208DF8A2
:1037D0000F0057E09DF80700000600280FD5FFE70F
:1037E00002989DF8071001F0070101EB810100EB41
:1037F000C100103000900099012048700DE002983F
:103800009DF8071001EB810100EBC10000F5A870E5
:103810000090009900204870FFE70099012088700F
:103820009DF8070000F0070000990870FFE7029874
:1038300090F89002012804D1FFE702208DF80F00D4
:1038400020E00299012081F89002FFE7FFE702984B
:103850000068009906F04CFA9DF80700400738B957
:10386000FFE70299086801F5267106F097F9FFE76E
:10387000FFE70299002081F89002FFE700208DF811
:103880000F00FFE79DF80F0004B080BD80B586B043
:1038900005908DF813100392029305989DF813106C
:1038A00001F0070101EB810100EBC1001030019034
:1038B0000398019948610298019988610199012052
:1038C00081F824000299019A1162019A0021009165
:1038D000D161019948709DF8130000F0070001992B
:1038E000087005980068019906F046FA009806B03D
:1038F00080BD000080B588B007900798006807F089
:103900005FF906909DF819000006002804D5FFE72E
:10391000079803F0F9F8EDE09DF81900400700283A
:1039200010D5FFE707980168B1F8440020F48060E3
:10393000A1F84400079800F009FA0798002100F068
:1039400035FAD7E09DF819004006002809D5FFE7B1
:1039500007980168B1F8440020F48040A1F84400C1
:10396000C8E09DF819008006002809D5FFE70798F0
:103970000168B1F8440020F40050A1F84400B9E017
:103980009DF81900C00600281CD5FFE707980168BC
:10399000B1F8400020F00400A1F840000798016849
:1039A000B1F8400020F00800A1F84000079800F0AE
:1039B000E9F907980168B1F8440020F48050A1F8B3
:1039C000440097E09DF819000007002872D5FFE732
:1039D00000208DF80700FFE79DF80700072812D8A0
:1039E000FFE7079800689DF8071030F821009DF860
:1039F000072002A921F81200FFE79DF80700013017
:103A00008DF80700E8E707980168B1F8400040F03A
:103A10000100A1F8400007980168B1F8400020F0CB
:103A20000100A1F84000FFE707980068B0F84400E3
:103A30004005002801D4FFE7F6E707980168B1F8D0
:103A4000440020F48060A1F8440000208DF80700B5
:103A5000FFE79DF80700072810D8FFE79DF807202B
:103A600002A830F812000799096821F82200FFE740
:103A70009DF8070001308DF80700EAE70798016814
:103A8000B1F8400040F00800A1F840000798016834
:103A9000B1F8440020F40060A1F8440007980168E0
:103AA000B1F8400040F00400A1F84000079800F091
:103AB000E5F91FE09DF81900800700280CD5FFE705
:103AC00007980168B1F8440020F40070A1F84400A0
:103AD000079800F061F90DE09DF81900C00748B1A2
:103AE000FFE707980168B1F8440020F48070A1F85E
:103AF0004400FFE708B080BD80B58AB00890089800
:103B000020B9FFE701208DF82700F3E0089890F82E
:103B1000910240B9FFE70899002081F890020898C7
:103B200000F0ECF8FFE70899032081F8910208996A
:103B3000002048710898006806F020F8089A10687C
:103B4000117B8DF8181051689268059204910499C0
:103B5000059A069B05F028FE40B1FFE70899022070
:103B600081F8910201208DF82700C3E008980068D1
:103B7000002107F075F840B1FFE70899022081F8AD
:103B8000910201208DF82700B4E000208DF81F007D
:103B9000FFE79DF81F0008990979884239DAFFE7A5
:103BA00008989DF81F1001EB810100EBC101012075
:103BB00048749DF81F00089900EB800201EBC201D8
:103BC000087408989DF81F1001EB810100EBC101FA
:103BD0000020C87408999DF81F2002EB820201EBB7
:103BE000C201086208999DF81F2002EB820201EBD6
:103BF000C201486208999DF81F2002EB820201EB86
:103C0000C2018862FFE79DF81F0001308DF81F0098
:103C1000BFE700208DF81F00FFE79DF81F000899FF
:103C2000097988423EDAFFE708989DF81F1001EBFA
:103C3000810100EBC101002081F851019DF81F10A6
:103C4000089A01EB810302EBC30282F85011089934
:103C50009DF81F2002EB820201EBC20181F85301A3
:103C600008999DF81F2002EB820201EBC201C1F806
:103C7000600108999DF81F2002EB820201EBC2014E
:103C8000C1F8640108999DF81F2002EB820201EB44
:103C9000C201C1F86801FFE79DF81F0001308DF8EF
:103CA0001F00BAE7089A1068117B8DF80C10516854
:103CB0009268029201910199029A039B05F040FFDC
:103CC00040B1FFE70899022081F8910201208DF8A8
:103CD00027000FE008990020009048730899012000
:103CE00081F891020898006805F024FF00988DF88B
:103CF0002700FFE79DF827000AB080BD80B584B09B
:103D000003900398006845F60041C4F20001884220
:103D100019D1FFE7FFE741F21C00C4F2020001687D
:103D200041F400010160006800F400000290029874
:103D3000FFE71420019000221146FEF799FE01983A
:103D4000FEF78CFEFFE704B080BD000080B582B0B6
:103D5000019001208DF8030001988079022803D09A
:103D6000FFE7FDF745FCFFE70198D0F8D4029DF886
:103D7000031004F02BFD0198D0F8D40204F0C0FC2D
:103D800002B080BD80B582B001900198D0F8D40215
:103D900004F0F0FC02B080BD80B582B001900198C3
:103DA000D0F8D40204F0F8FC02B080BD80B584B035
:103DB00002908DF80710FFE7029890F89002012812
:103DC00004D1FFE702208DF80F0019E002990120CD
:103DD00081F89002FFE7FFE79DF80700029948731A
:103DE000029800689DF8071006F042FFFFE702996D
:103DF000002081F89002FFE700208DF80F00FFE718
:103E00009DF80F0004B080BD80B582B0019001998B
:103E1000D1F8D40201F5267104F002FD02B080BD94
:103E200080B582B00090FFE7009890F890020128DA
:103E300004D1FFE702208DF807001BE00099012064
:103E400081F89002FFE7FFE70098006806F0A0FE07
:103E500000980121FEF76CFE0098006805F064FEF2
:103E6000FFE70099002081F89002FFE700208DF81D
:103E70000700FFE79DF8070002B080BD80B582B063
:103E800001900198D0F8D40204F044FD0198807AA2
:103E900048B1FFE74EF61051CEF20001086840F03D
:103EA00006000860FFE702B080BD000080B586B064
:103EB000049000200390029004980078C007002826
:103EC00000F0AC80FFE700208DF8070041F21C00F5
:103ED000C4F202000068C000002813D4FFE7FFE727
:103EE00041F21C00C4F20200016841F080510160FF
:103EF000006800F0805000900098FFE701208DF8E6
:103F00000700FFE747F20000C4F200000068C005A8
:103F1000002822D4FFE747F20001C4F2000108683C
:103F200040F480700860FDF725FE0390FFE747F23C
:103F30000000C4F200000068C00500280CD4FFE7B0
:103F4000FDF718FE0399401A652804D3FFE7032004
:103F50008DF817008AE0EAE7FFE741F22000C4F29B
:103F60000200006800F4407002900298E0B3FFE79E
:103F700002980499496801F44071884234D0FFE7FF
:103F800041F22001C4F20201086820F4407002905E
:103F900040F24042C4F24222012010600020106032
:103FA000029808609DF80800C007E0B1FFE7FDF740
:103FB000E1FD0390FFE741F22000C4F20200006837
:103FC000800700280ED4FFE7FDF7D4FD0399401ABF
:103FD00041F28931884204D3FFE703208DF81700AE
:103FE00044E0E8E7FFE7FFE741F22001C4F2020105
:103FF000086820F44070049A5268104308609DF8E5
:104000000700012809D1FFE741F21C01C4F20201B7
:10401000086820F080500860FFE7FFE70498007808
:10402000800700280CD5FFE741F20401C4F2020129
:10403000086820F44040049A926810430860FFE743
:1040400004980078C00600280CD5FFE741F204016F
:10405000C4F20201086820F48000049AD268104378
:104060000860FFE700208DF81700FFE79DF81700B4
:1040700006B080BD7047000080B584B00290019109
:10408000029820B9FFE701208DF80F001BE101988D
:1040900042F20001C4F20201096801F007018842FE
:1040A00016D9FFE742F20000C4F20200016821F0D5
:1040B0000701019A11430160006800F007000199AF
:1040C000884204D0FFE701208DF80F00FBE0FFE7F6
:1040D00002980078800700282AD5FFE70298007828
:1040E0004007002809D5FFE741F20401C4F20201AC
:1040F000086840F4E0600860FFE702980078000775
:10410000002809D5FFE741F20401C4F20201086862
:1041100040F460500860FFE741F20401C4F202017C
:10412000086820F0F000029A926810430860FFE7E8
:1041300002980078C007002860D0FFE70298406826
:1041400001280ED1FFE741F20000C4F2020000682E
:104150008003002804D4FFE701208DF80F00B2E0AF
:1041600021E00298406802280ED1FFE741F20000EA
:10417000C4F2020000688001002804D4FFE7012097
:104180008DF80F009FE00DE041F20000C4F2020044
:1041900000688007002804D4FFE701208DF80F0095
:1041A00091E0FFE7FFE741F20401C4F20201086871
:1041B00020F00300029A526810430860FDF7DAFC11
:1041C0000090FFE741F20400C4F20200006800F032
:1041D0000C0002994968B0EB810F0ED0FFE7FDF7A4
:1041E000C9FC0099401A41F28931884204D3FFE7A3
:1041F00003208DF80F0066E0E4E7FFE7019842F244
:104200000001C4F20201096801F00701884216D2D8
:10421000FFE742F20000C4F20200016821F007014A
:10422000019A11430160006800F00700019988427B
:1042300004D0FFE701208DF80F0044E0FFE702986B
:104240000078400700280CD5FFE741F20401C4F2D2
:104250000201086820F4E060029AD2681043086006
:10426000FFE702980078000700280DD5FFE741F22C
:104270000401C4F20201086820F46050029A126935
:1042800040EAC2000860FFE700F040F841F2040194
:10429000C4F202010968C9B20A094CF2C011C0F6A1
:1042A0000001895CC84040F22401C2F200010860AC
:1042B00040F27C10C2F200000068FEF75BFB0020B9
:1042C0008DF80F00FFE79DF80F0004B080BD0000DF
:1042D0004C21C4F2422101200860704740F22400C2
:1042E000C2F200000068704780B5FFF7F7FF41F2A7
:1042F0000401C4F202010968C1F302224CF2D01198
:10430000C0F60001895CC84080BD000086B0002076
:104310000590049003900290019041F20400C4F2D1
:10432000020000680590059800F00C00014600911D
:1043300000283FD0FFE70098042804D0FFE700984A
:10434000082806D037E041F20020C0F27A00019040
:1043500037E00598C0F383414CF64410C0F60000E6
:10436000405C02909DF81600C007C0B1FFE741F223
:104370000400C4F202000068C0F340414CF654103F
:10438000C0F60000405C0490029841F20021C0F2A7
:104390007A0148430499B0FBF1F0039007E00298DA
:1043A00040F60011C0F23D0148430390FFE7039837
:1043B000019006E0FFE741F20020C0F27A00019090
:1043C000FFE7019806B0704780B541F20800C4F2DB
:1043D000020000680006002809D5FFE7FFF74AFE43
:1043E00041F20A01C4F2020180200870FFE780BD9B
:1043F00080B586B00490049820B9FFE701208DF8BD
:1044000017002EE304980078C007002800F0AE8063
:10441000FFE741F20400C4F20200006800F00C0063
:10442000042813D0FFE741F20400C4F20200006840
:1044300000F00C0008281BD1FFE741F20400C4F291
:1044400002000068C003002812D5FFE741F2000017
:10445000C4F2020000688003002808D5FFE7049832
:10446000406820B9FFE701208DF81700F9E27CE0F1
:10447000FFE704984068B0F5803F09D1FFE741F2BB
:104480000001C4F20201086840F48030086032E0A4
:104490000498406868B9FFE741F20001C4F20201E4
:1044A000086820F480300860086820F480200860E4
:1044B00020E004984068B0F5A02F0DD1FFE741F24D
:1044C0000001C4F20201086840F480200860086816
:1044D00040F4803008600CE041F20001C4F20201B7
:1044E000086820F480300860086820F480200860A4
:1044F000FFE7FFE7FFE7FFE704984068D0B1FFE779
:10450000FDF738FB0390FFE741F20000C4F2020020
:104510000068800300280CD4FFE7FDF72BFB03990C
:10452000401A652804D3FFE703208DF8170098E2AE
:10453000EAE719E0FDF71EFB0390FFE741F20000F8
:10454000C4F202000068800300280CD5FFE7FDF7E5
:1045500011FB0399401A652804D3FFE703208DF867
:1045600017007EE2EAE7FFE7FFE7FFE7049800783D
:104570008007002840F18D80FFE741F20400C4F27B
:104580000200006810F00C0F13D0FFE741F20400A6
:10459000C4F20200006800F00C00082829D1FFE7EF
:1045A00041F20400C4F202000068C003002820D4D5
:1045B000FFE741F20000C4F2020000688007002813
:1045C00009D5FFE704980069012804D0FFE701201E
:1045D0008DF8170045E241F20001C4F202010868BB
:1045E00020F0F800049A526940EAC2000860FFE730
:1045F0004EE00498006958B3FFE70021C4F242215D
:1046000001200860FDF7B6FA0390FFE741F20000D1
:10461000C4F202000068800700280CD4FFE7FDF711
:10462000A9FA0399401A032804D3FFE703208DF861
:10463000170016E2EAE741F20001C4F2020108683D
:1046400020F0F800049A526940EAC20008601EE0B7
:104650000021C4F2422100200860FDF78BFA03908C
:10466000FFE741F20000C4F2020000688007002862
:104670000CD5FFE7FDF77EFA0399401A032804D30F
:10468000FFE703208DF81700EBE1EAE7FFE7FFE71C
:10469000FFE7049800780007002848D5FFE7049852
:1046A000806918B3FFE740F28041C4F24221012043
:1046B0000860FDF75FFA0390FFE741F22400C4F2BF
:1046C00002000068800700280CD4FFE7FDF752FACB
:1046D0000399401A032804D3FFE703208DF817003D
:1046E000BFE1EAE7012002F097FD1FE040F28041C0
:1046F000C4F2422100200860FDF73CFA0390FFE776
:1047000041F22400C4F202000068800700280CD5A2
:10471000FFE7FDF72FFA0399401A032804D3FFE7B8
:1047200003208DF817009CE1EAE7FFE7FFE7049814
:1047300000784007002840F1D880FFE700208DF87E
:10474000070041F21C00C4F202000068C00000280B
:1047500013D4FFE7FFE741F21C00C4F20200016836
:1047600041F080510160006800F080500090009896
:10477000FFE701208DF80700FFE747F20000C4F2D1
:1047800000000068C005002822D4FFE747F20001BE
:10479000C4F20001086840F480700860FDF7EAF98F
:1047A0000390FFE747F20000C4F200000068C00574
:1047B00000280CD4FFE7FDF7DDF90399401A6528BE
:1047C00004D3FFE703208DF817004AE1EAE7FFE78B
:1047D000FFE70498C068012809D1FFE741F22001F2
:1047E000C4F20201086840F00100086031E004985A
:1047F000C06868B9FFE741F22001C4F2020108680D
:1048000020F001000860086820F0040008601FE044
:104810000498C06805280DD1FFE741F22001C4F2D9
:104820000201086840F004000860086840F00100D8
:1048300008600CE041F22001C4F20201086820F097
:1048400001000860086820F004000860FFE7FFE747
:10485000FFE7FFE70498C068E0B1FFE7FDF78AF9DA
:104860000390FFE741F22000C4F2020000688007D5
:1048700000280ED4FFE7FDF77DF90399401A41F2B5
:104880008931884204D3FFE703208DF81700E8E060
:10489000E8E71BE0FDF76EF90390FFE741F2200027
:1048A000C4F202000068800700280ED5FFE7FDF77C
:1048B00061F90399401A41F28931884204D3FFE734
:1048C00003208DF81700CCE0E8E7FFE79DF807002C
:1048D000012809D1FFE741F21C01C4F20201086876
:1048E00020F080500860FFE7FFE70498C0690028C7
:1048F00000F0B380FFE741F20400C4F20200006858
:1049000000F00C00082800F08280FFE70498C069DE
:1049100002285CD1FFE76021C4F242210020086038
:10492000FDF728F90390FFE741F20000C4F202000E
:104930000068800100280CD5FFE7FDF71BF90399FB
:10494000401A032804D3FFE703208DF8170088E0FE
:10495000EAE70498006AB0F5803F0CD1FFE741F226
:104960000401C4F20201086820F40030049A92683D
:1049700010430860FFE741F20401C4F20201086835
:1049800020F47410049B1A6A5B6A1A43104308608F
:104990006021C4F2422101200860FDF7EBF803908A
:1049A000FFE741F20000C4F2020000688001002825
:1049B0000CD4FFE7FDF7DEF80399401A032804D36F
:1049C000FFE703208DF817004BE0EAE71EE06021C7
:1049D000C4F2422100200860FDF7CCF80390FFE705
:1049E00041F20000C4F202000068800100280CD5EA
:1049F000FFE7FDF7BFF80399401A032804D3FFE748
:104A000003208DF817002CE0EAE7FFE724E0049884
:104A1000C069012804D1FFE701208DF8170020E0CC
:104A200041F20400C4F2020000680290029800F40F
:104A300080300499096A884208D1FFE7029800F49F
:104A400070100499496A884204D0FFE701208DF86C
:104A5000170006E0FFE7FFE7FFE700208DF81700EB
:104A6000FFE79DF8170006B080BD000080B582B05A
:104A70000190019802F0F2FB02B080BD85B0039076
:104A80000291FFE7039890F83C00012804D1FFE76A
:104A900002208DF813005BE00399012081F83C00AF
:104AA000FFE7FFE70399022081F83D0003980068C3
:104AB000406801900398006880680090019820F099
:104AC00070000190029801680198084301900198D4
:104AD0000399096848600398006842F60041C4F2EF
:104AE0000101884218D0FFE703980068B0F1804FB9
:104AF00012D0FFE70398006840F20041C4F20001C1
:104B0000884209D0FFE70398006840F60001C4F22C
:104B1000000188420ED1FFE7009820F0800000904D
:104B2000029841680098084300900098039909682A
:104B30008860FFE70399012081F83D00FFE70399B2
:104B4000002081F83C00FFE700208DF81300FFE70C
:104B50009DF8130005B0704780B582B000900098B2
:104B600020B9FFE701208DF807003FE0009890F89A
:104B70003D0040B9FFE70099002081F83C00009813
:104B800000F038F8FFE70099022081F83D00009915
:104B900051F8040B02F092FB0099012081F84600C5
:104BA000FFE70099012081F83E00009981F83F005D
:104BB000009981F84000009981F84100FFE7FFE784
:104BC0000099012081F84200009981F84300009982
:104BD00081F84400009981F84500FFE70099012021
:104BE00081F83D0000208DF80700FFE79DF80700E1
:104BF00002B080BD82B001900198006840F60001CB
:104C0000C4F20001884210D1FFE7FFE741F21C0027
:104C1000C4F20200016841F004010160006800F084
:104C2000040000900098FFE7FFE702B07047000023
:104C300083B00190019890F83D00012804D0FFE76F
:104C400001208DF80B0047E00199022081F83D001A
:104C500001980168C86840F00100C86001980068C8
:104C600042F60041C4F20101884218D0FFE70198E2
:104C70000068B0F1804F12D0FFE70198006840F261
:104C80000041C4F20001884209D0FFE701980068A2
:104C900040F60001C4F20001884212D1FFE70198FA
:104CA0000068806800F0070000900098062807D090
:104CB000FFE701980168086840F001000860FFE71D
:104CC00006E001980168086840F001000860FFE70D
:104CD00000208DF80B00FFE79DF80B0003B0704734
:104CE00080B586B00490039100208DF80B00FFE79B
:104CF000049890F83C00012804D1FFE702208DF8C9
:104D00001700ABE00499012081F83C00FFE7FFE7C2
:104D10000499022081F83D000498006880680190A1
:104D2000019820F077000190019820F47F400190D5
:104D30000198049909688860039800680090002829
:104D400072D0FFE7009810286ED0FFE70098202867
:104D50006AD0FFE70098302866D0FFE70098402827
:104D600055D0FFE70098502837D0FFE7009860281B
:104D700040D0FFE7009870280BD0FFE70098B0F50F
:104D8000805F05D0FFE70098B0F5005F16D052E0D5
:104D900055E004980068039B5A689968DB6802F044
:104DA00011FB0498006880680190019840F077003A
:104DB0000190019804990968886040E004980068AF
:104DC000039B5A689968DB6802F0FCFA0498016852
:104DD000886840F48040886031E004980068039A55
:104DE0005168D26802F01EFB04980068502102F05E
:104DF00003FB24E004980068039A5168D26802F02B
:104E000039FB04980068602102F0F6FA17E0049874
:104E10000068039A5168D26802F004FB04980068A5
:104E2000402102F0E9FA0AE0049800680399096851
:104E300002F0E2FA03E001208DF80B00FFE704998D
:104E4000012081F83D00FFE70499002081F83C0033
:104E5000FFE79DF80B008DF81700FFE79DF817009E
:104E600006B080BDFFE7FEE780B541F2A450C2F274
:104E70000000FCF791FE80BD80B541F2A450C2F263
:104E80000000FCF74DFF80BD81B000900098C06A23
:104E9000B0F52A0F04D1FFE700990120C8620BE0AA
:104EA0000098C06AB0F12A4F04D1FFE700990820AA
:104EB000C86200E0FFE7FFE701B0704780B584B04B
:104EC0000390002002900398406A0190019890F8A6
:104ED0003D008DF8030040F22400C2F2000000689B
:104EE00048F21F51C5F2EB11A0FB0110C00844F6B7
:104EF000D351C1F26201A0FB011080092321484374
:104F00000290FFE7029830B9FFE70199086C40F082
:104F1000200008640CE0029801380290FFE7019835
:104F20000068006800F40070B0F5007FEAD0FFE789
:104F30000198406B28B1FFE70198416B002088621F
:104F4000FFE70198806B28B1FFE70198816B002093
:104F50008862FFE701980168086820F480600860B3
:104F60000199002048850198406B28B1FFE701981E
:104F7000416B00204863FFE70198806B28B1FFE791
:104F80000198816B00204863FFE701980168086879
:104F900020F001000860019890F83D0060280ED1D3
:104FA000FFE70199202081F83D000199002081F858
:104FB0003E00019908640198FCF7E2FD27E09DF8A6
:104FC000030000F02800282814D1FFE701980168A9
:104FD000086840F00100086001980168086840F422
:104FE000806008600199002008630199282081F8F9
:104FF0003D0008E00199202081F83D000199002042
:1050000081F83E00FFE70198FDF770F8FFE704B074
:1050100080BD000081B00090009800684069C1B276
:105020000020B0EBD11F05D0FFE7009801680020F9
:105030000861FFE701B0704780B584B00390039822
:1050400090F83D008DF80B00039890F83E008DF825
:105050000A009DF80A00102805D0FFE79DF80A0015
:1050600040280CD1FFE79DF80B00222807D1FFE76D
:1050700003980168086820F400600860FFE79DF865
:105080000B0000F02800282808D1FFE70399002032
:1050900008630399282081F83D001AE0039800680E
:1050A000406800F40060B0F5006F0ED0FFE79DF897
:1050B0000B00602809D0FFE70399202081F83D000C
:1050C0000399002081F83E00FFE703990020086360
:1050D000FFE7039800684068000500285DD5FFE7FA
:1050E00003980168486820F4006048600398406BAA
:1050F00090F8210001281DD0FFE70398416B44F68A
:10510000BD60C0F6000048630398406BFCF7A6FA48
:1051100078B1FFE703980168086820F00100086093
:105120000399202081F83D000398406B416B88472C
:10513000FFE731E00398816B44F6BD60C0F60000E4
:1051400048630398806BFCF789FA20B3FFE7039864
:105150000068406900F040010120B0EB911F0BD1C5
:10516000FFE70398006800690399496A087003998A
:10517000486A01304862FFE703980168086820F038
:10518000010008600399202081F83D000398806B9E
:10519000416B8847FFE7FFE745E0039890F83D0043
:1051A000602826D1FFE70399202081F83D0003996C
:1051B0000020086403980068406900F04001012065
:1051C000B0EB911F0BD1FFE70398006800690399CA
:1051D000496A08700399486A01304862FFE70398FA
:1051E0000168086820F0010008600398FCF7C8FC1B
:1051F00018E003980068406900F040010120B0EB1E
:10520000911F0BD1FFE70398006800690399496A71
:1052100008700399486A01304862FFE70398FCF779
:1052200065FFFFE7FFE70398006C01909DF804001D
:10523000C00790B9FFE7019800F0020002280CD0E7
:10524000FFE7019800F00400042806D0FFE79DF86E
:1052500004000007002807D5FFE7039801684868A5
:1052600020F4E0604860FFE7039890F83D008DF877
:105270000B000398006C4007002818D5FFE79DF845
:105280000B00282813D1FFE703990020CFF6FF7009
:10529000C862039900200863039A202182F83D1018
:1052A000039981F83E000398FDF776F8FFE704B014
:1052B00080BD000082B0009000980068406900F452
:1052C00080610120B0EB912F1ED1FFE700980168AB
:1052D0006FF480604861009900200863009A2021E3
:1052E00082F83D10009981F83E000099086C40F06A
:1052F00004000864FFE70099002081F83C00FFE704
:1053000001208DF8070003E000208DF80700FFE77B
:105310009DF8070002B0704780B582B001900198F7
:10532000C06A00900198408D042815D1FFE70198CC
:105330000168486820F4806048600198006800694E
:105340000199496A08700199486A013048620199D7
:10535000488D01384885B3E00198408D032824D159
:10536000FFE701980168486820F480604860009871
:1053700004280BD0FFE70098022807D0FFE7019828
:105380000168086820F480600860FFE70198006801
:1053900000690199496A08700199486A01304862B8
:1053A0000199488D0138488589E00198408D02288F
:1053B00075D1FFE70098012804D0FFE70098102876
:1053C00007D1FFE701980168086820F48060086051
:1053D00016E00098042804D0FFE70098022807D1BF
:1053E000FFE701980168086840F48060086006E003
:1053F00001980168086840F400700860FFE7FFE763
:105400000198006800690199496A08700199486A21
:10541000013048620199488D01384885019800683B
:1054200000690199496A08700199486A0130486227
:105430000199488D0138488501980168486820F431
:10544000407048600199202081F83D00019890F853
:105450003E0040280AD1FFE70199002081F83E0074
:10546000019908630198FDF7A7F817E0019900205A
:1054700081F83E000098082804D0FFE70098202813
:1054800004D1FFE701990020086303E0019912208D
:105490000863FFE70198FCF783FFFFE70EE0019840
:1054A000006800690199496A08700199486A0130E9
:1054B00048620199488D01384885FFE7FFE7FFE71B
:1054C00002B080BD80B584B00390039890F83D0091
:1054D000222840F0AA80FFE70398C06A0190039851
:1054E000408D0290029804281BD3FFE703980068C0
:1054F00000690399496A08700399486A0130486253
:105500000399488D013848850398408D032807D1B9
:10551000FFE703980168486820F480604860FFE76F
:1055200082E00398C06A022876D0FFE7029801283B
:1055300004D0FFE7029800286ED1FFE7039801F03E
:105540009BF9002847D1FFE703980168086820F419
:105550008060086003980168486820F4E060486053
:105560000398006800690399496A08700399486ABA
:10557000013048620399488D0138488503992020FD
:1055800081F83D00039890F83E0040280AD1FFE7DB
:105590000399002081F83E00039908630398FDF702
:1055A0000BF817E00399002081F83E0001980828C5
:1055B00004D0FFE70198202804D1FFE703990020D9
:1055C000086303E0039912200863FFE70398FCF7E0
:1055D000E7FEFFE71FE003980168486820F4E060F9
:1055E00048600398006800690399496A0870039944
:1055F000486A013048620399488D0138488503990B
:10560000202081F83D000399002081F83E00039896
:10561000FCF76CFDFFE706E003980168486820F49A
:1056200080604860FFE7FFE7FFE704B080BD00004F
:1056300080B588B00690ADF81610049203930698D2
:10564000C06A02900298082809D0FFE70298012852
:1056500005D0FFE7029810F5803F07D1FFE70698D5
:105660000168086840F4807008600DE00698006BDF
:10567000122807D1FFE706980168086840F4807097
:10568000086000E0FFE7FFE70698049B03996A467D
:1056900011604FF00111002200F0C0FF80B1FFE760
:1056A000069800680068C005002805D5FFE7069940
:1056B0004FF400700864FFE703208DF81F003CE002
:1056C00006980069B0F5804F08D1FFE7BDF81600D5
:1056D00000F0FE000699096808611CE0BDF816009C
:1056E00000F44070C009F030069909680861069816
:1056F000049A039B0821C0F2010101F013F820B1C4
:10570000FFE701208DF81F0017E09DF816000699AD
:1057100009680861FFE70698049A039B0221C0F21A
:10572000010100F0FFFF20B1FFE701208DF81F000D
:1057300003E000208DF81F00FFE79DF81F0008B070
:1057400080BD000080B582B001900198C06A0090D1
:10575000019890F83D00212860D1FFE70198408D25
:1057600070B1FFE701980168406A0078086101990B
:10577000486A013048620199488D013848854CE0FB
:10578000009808281ED0FFE7009820281AD0FFE7CD
:10579000009810F5803F15D0FFE701980168486830
:1057A00020F4E0604860019911200863019900200D
:1057B00081F83E000199202081F83D000198FCF716
:1057C000F3FD29E001980168486820F4E060486032
:1057D00001980168086840F4007008600199002091
:1057E00008630199202081F83D00019890F83E005F
:1057F000402808D1FFE70199002081F83E00019878
:10580000FCF7DEFE07E00199002081F83E000198D8
:10581000FCF7CAFDFFE7FFE7FFE700E0FFE702B0A4
:1058200080BD000080B584B00390039890F83D00DF
:105830008DF80B00039890F83E008DF80A0003984D
:10584000C06A01900398008D002852D1FFE79DF8AF
:105850000B0021284DD1FFE7019808281ED0FFE753
:10586000019820281AD0FFE7019810F5803F15D045
:10587000FFE703980168486820F4E06048600399F6
:10588000112008630399002081F83E00039920202D
:1058900081F83D000398FCF787FD29E00398016833
:1058A000486820F4E060486003980168086840F4A4
:1058B000007008600399002008630399202081F894
:1058C0003D00039890F83E00402808D1FFE7039977
:1058D000002081F83E000398FCF772FE07E0039970
:1058E000002081F83E000398FCF75EFDFFE7FFE72C
:1058F00035E09DF80B0021280AD0FFE79DF80A004B
:1059000040282AD1FFE79DF80B00222825D1FFE788
:105910000398408D38B9FFE703980168486820F480
:105920008060486018E0039890F83E00402804D159
:10593000FFE7039800F05EFA0DE003980168406A03
:10594000007808610399486A013048620399488DDC
:1059500001384885FFE7FFE700E0FFE7FFE704B015
:1059600080BD000081B000900098406CC0B20099EA
:10597000096808610098406B28B1FFE70098406B08
:10598000806A48B9FFE70098806B60B1FFE7009834
:10599000806B806A38B1FFE700980168486840F47E
:1059A00000604860FFE701B0704700008FB00E90C4
:1059B0000E9890F83E008DF837000E98C06A0C9053
:1059C0000E98006B0B900E9890F83D00222840F046
:1059D0008981FFE70E98006D98B9FFE79DF83700C1
:1059E00040280ED1FFE7FFE700200A900E980068DC
:1059F00040690A900E98006880690A900A98FFE74B
:105A00006FE10E98006DF0B9FFE70E980069B0F5F0
:105A1000404F18D1FFE7FFE7002009900E9800687B
:105A2000406909900E980068806909900998FFE71D
:105A30000E980168086840F4807008600E99086D3F
:105A4000013008654CE10E98408DA0B9FFE7FFE7F3
:105A5000002008900E980068406908900E98006831
:105A6000806908900898FFE70E980168086840F47C
:105A70000070086030E10E98408D012840F0908061
:105A8000FFE70C9810F5803F36D1FFE70E980168CC
:105A9000086820F4806008600E980068406800057F
:105AA000002814D5FFE70E980168086820F480608C
:105AB0000860FFE7002007900E9800684069079093
:105AC0000E980068806907900798FFE713E0FFE7EA
:105AD000002006900E980068406906900E980068B5
